:100000000C9434000C943E000C943E000C943E0082
:100010000C943E000C943E000C943E000C943E0068
:100020000C943E000C943E000C943E000C943E0058
:100030000C943E000C943E000C943E000C943E0048
:100040000C943E000C943E000C943E000C943E0038
:100050000C943E000C943E000C943E000C943E0028
:100060000C943E000C943E0011241FBECFEFD8E04C
:10007000DEBFCDBF0E9477000C9479000C94000085
:10008000229A239A219A299A2A982B982FEF33E2C1
:1000900084EF215030408040E1F700C000002998F3
:1000A0002A9A2B989FEF2DE339E49150204030405D
:1000B000E1F700C0000029982A982B9A84E595E87A
:1000C00025E431E08150904020403040D9F700C015
:1000D00000C0000029982A9A2B988FEF9DE329E40D
:1000E000815090402040E1F700C00000CCCF0E943A
:0600F0004000F894FFCF70
:00000001FF
