:100000000C9434000C943E000C943E000C943E0082
:100010000C943E000C943E000C943E000C943E0068
:100020000C943E000C943E000C943E000C943E0058
:100030000C943E000C943E000C943E000C943E0048
:100040000C943E000C943E000C943E000C943E0038
:100050000C943E000C943E000C943E000C943E0028
:100060000C943E000C943E0011241FBECFEFD8E04C
:10007000DEBFCDBF0E947A000C947C000C9400007F
:10008000229A239A219A299A2A982B9824E535E8CE
:1000900085E491E02150304080409040D9F700C085
:1000A00000C0000029982A9A2B982FEF3DE389E49D
:1000B000215030408040E1F700C0000029982A9884
:1000C0002B9A94E525E835E481E0915020403040BA
:1000D0008040D9F700C000C0000029982A9A2B98C8
:1000E0009FEF2DE339E4915020403040E1F700C00C
:0C00F0000000C9CF0E944000F894FFCF30
:00000001FF
